:020000040800F2
:10000000100D002021020008250200082702000828
:10001000290200082B0200082D0200080000000041
:100020000000000000000000000000002F02000897
:100030003102000800000000330200083502000809
:1000400037020008370200083702000837020008AC
:10005000370200083702000837020008370200089C
:10006000370200083702000837020008370200088C
:10007000370200083702000837020008370200087C
:10008000370200083702000837020008370200086C
:10009000032700083702000837020008370200086B
:1000A000370200083702000837020008370200084C
:1000B0007F1C0008971C0008CD1C000837020008B0
:1000C000370200083702000837020008370200082C
:1000D00037020008B707000843090008412B000851
:1000E000853500083702000837020008370200088B
:1000F00037020008370200083702000837020008FC
:100100003702000837020008DF1C00083702000829
:1001100037020008370200083702000837020008DB
:1001200037020008370200083702000837020008CB
:1001300000F002F800F05FF80AA090E8000C82449A
:100140008344AAF10107DA4501D100F054F8AFF277
:10015000090EBAE80F0013F0010F18BFFB1A43F0A5
:10016000010318472CB200004CB200000A444FF0C3
:10017000000C10F8013B13F0070408BF10F8014B06
:100180001D1108BF10F8015B641E05D010F8016B4B
:10019000641E01F8016BF9D113F0080F1EBF10F8AF
:1001A000014BAD1C0C1B09D16D1E58BF01F801CBD2
:1001B000FAD505E014F8016B01F8016B6D1EF9D555
:1001C0009142D6D37047000000230024002500266A
:1001D000103A28BF78C1FBD8520728BF30C148BFAA
:1001E0000B607047642906F0F987002070471FB53F
:1001F0001FBD10B510BD07F0BFF91146FFF7F7FF9F
:1002000000F02AF807F0DDF903B4FFF7F2FF03BCB2
:1002100000F04CFA30BF72B662B680F308887047BF
:1002200008480047FEE7FEE7FEE7FEE7FEE7FEE7D9
:10023000FEE7FEE7FEE7FEE703480449044A054BF4
:10024000704700003101000810070020100D002049
:10025000100900201009002008B5092000F0CDF990
:10026000482000F06DF8022000F0B2F9012000F003
:10027000AFF900F0E9FD00F021FE002141F61F403A
:1002800001F085FA2948006818B90120284908704A
:1002900002E000202649087001F053F84FF4E131E4
:1002A000482000F01DFA4FF41651242000F0D4FA33
:1002B0004FF4E131242002F0C8FB01F003FB01F010
:1002C00071FB01F0D9FB01F03FFC01F0FDF801F0FA
:1002D00013FD06F040FA06F052FA02F097FC02F025
:1002E000A7FE01F08FFF00200623032202210090C9
:1002F000012001F0B1FF17E00E48007818B906F0B0
:1003000024FE06F0D9FC02F0B3FA02F09FFE00F0E2
:10031000A6FC01200849087000200849087000BFA9
:10032000054800780028FBD1E6E700003081214233
:10033000660000200400002065000020640000200A
:100340004FF0E021096921F004014FF0E022116132
:10035000C21700EB5272C2F3C702234B1A70194640
:10036000097801EB4102C2EBC1114FF6FF7202EABC
:10037000C1011E4A1180704701461B4A12784A4348
:100380004FF0E0235A6100229A6101221A6100BFF6
:100390004FF0E022106900F001021AB100F480323F
:1003A000002AF5D000224FF0E0231A619A617047CD
:1003B00001460E4A12884A434FF0E0235A61002258
:1003C0009A6101221A6100BF4FF0E022106900F02B
:1003D00001021AB100F48032002AF5D000224FF059
:1003E000E0231A619A617047E4000020E6000020D3
:1003F000A34A0A400243A34B1A60704701460723F1
:1004000023EA010212029F4B1B1D18684FF6FF03DF
:1004100018409D4B184310439A4B1B1D18607047A2
:100420002DE9F0410746884614461D462846FFF749
:10043000E5FFC5F1040007FA00F60F20284100EAA5
:100440000800064306F00F06E21704EBD2625211D1
:10045000920002F1E022D2F800212146E31704EBDA
:10046000D3635B11A4EB431C012303FA0CF31A437F
:100470002046E31704EBD3635B119B0003F1E023F9
:10048000C3F800218148005D40EA06107F49085505
:10049000BDE8F08170B504460B46CE1701EB9676A9
:1004A000C6F38700CE1701EB9676B610A1EB860651
:1004B000B606350E764B9B6943F00103744EB3616B
:1004C0004FEAB63353F820300F26AE40B343714E97
:1004D00046F82030334653F8203004FA05F61E4320
:1004E0006C4B43F820606C4B1B6801268E403343F5
:1004F000694E336002F0010343B1674B0C331B6854
:1005000001268E403343644E0C36336002F0020302
:1005100043B1614B08331E6801238B401E435E4B81
:1005200008331E6070BD00B5002059490861C860DD
:100530001420486100208861C8610846006840F0C6
:100540000100086008464068544908405049486026
:1005500008460068524908404D490860084600684E
:1005600020F4802008600846406820F4FE004860BF
:100570000020886000214FF00060FFF739FF00BDC8
:1005800010B540480830006840F004003D4908318B
:1005900008603F48C06940F080503D49C86141480B
:1005A000406840F480703F4948600846006840F069
:1005B000040008600846006840F002000860FFF789
:1005C00029FE10BD3048001D2E49091D08607047E6
:1005D000014649062E4A926942F001022C4B9A616B
:1005E0002C4A083A526822F0E0622A4B083B5A60D3
:1005F0001A4652680A435A60704730B504460025CF
:10060000FFF791FF2248006840F4803020490860DD
:1006100000BF1F480068400C0028FAD04FF48060EB
:100620001B494860A01EC4B20846406840EA8440A6
:1006300048600846406840F4803048601A480068C6
:1006400040F03200184908601148006840F080709E
:100650000F49086000BF0E480068400E0028FAD01D
:100660000B48406840F002000949486005E008482E
:100670004068C0F3870505F00305022DF7D130BDB2
:1006800080FFFF1F08ED00E00000FA0500E400E035
:100690000010024008000140000401400000FFF883
:1006A000FFFFF6FE0070004000200240014600BF40
:1006B000704700BFFA4A128802F04002002AF9D0BF
:1006C000C2B2F74B1B1D1A807047F649088000BF65
:1006D000F449091F098801F040010029F8D070474A
:1006E0002DE9F05F05460E46300108F0D7FF814640
:1006F000ED4905FB01F008F0D1FF8246494608F0BC
:1007000083FE0746384608F091FF84B2204608F081
:10071000C5FF8346394609F006F982464FF083410A
:1007200009F004F8814608F081FF80464FF6FF701B
:1007300000EA041404EB080084B2DC48806940F04D
:100740000400DA4988610846806940F48040886185
:10075000D748006820F47F60D549086008460068E3
:1007600040F40B600860D148C06840F48040CF4935
:10077000C8600846C06820F48040C860C948001DB1
:100780000480001D008842F20C010843C54908316D
:1007900008800846008840F4807008800846008879
:1007A00040F0200008800223252201210020FFF7CD
:1007B00037FEBDE8F09FBB48001F008800F0200016
:1007C00000283CD0BB49097851B9BB490978491C7C
:1007D000C9B2B94A11700A2902DD0121B54A117066
:1007E000B0490988C8B2B549097869B9B4490978E6
:1007F000FE2909D1B3490978FF2905D10121AF4A62
:1008000011700021B04A1170AC49097801290FD14B
:10081000AE49AD4A12788854AB490978491CAA4AB6
:10082000117011460978082902D10021A34A1170DC
:10083000A3490978A34A1170A149087000BF00209C
:1008400070479749091D088000BF9549098801F044
:1008500040010029F9D070472DE9F05F05460E46AA
:10086000300108F01BFF81468F4905FB01F008F0BD
:1008700015FF8246494608F0C7FD0746384608F08E
:10088000D5FE84B2204608F009FF8346394609F0B8
:100890004AF882464FF0834108F048FF814608F04D
:1008A000C5FE80464FF6FF7000EA041404EB080012
:1008B00084B27E48806940F004007C498861084623
:1008C000C06940F40030C8617948001F006820F416
:1008D0007F407749091F08600846006840F40B40D4
:1008E000086073480830006840F48060704908313F
:1008F00008606E48006940F480206C490861084631
:10090000006920F480200861654808300480001DDB
:10091000008842F20C01084361490C310880084606
:10092000008840F4807008800846008840F020006D
:1009300008800223262200210846FFF771FDBDE84A
:10094000F09F2DE9FF5F5648008800F02000002846
:100950007ED05348001D00885D4908600846006845
:100960004B2803D101205B4908700AE05848006811
:10097000492803D0564800684A2802D1002055492A
:1009800008705548007800284DD152480078D0B9F9
:100990004F480068412809DB4D480068482805DCBD
:1009A0004B48007840384D4908703CE048480068A2
:1009B000082804DC464800784849087033E00020E5
:1009C000464908702FE04348007801282BD1404861
:1009D0000068432806D100204149087001204149A0
:1009E00008700FE03A480068472806D101203C49CA
:1009F000087000203B49087004E000203849087066
:100A00003849087032480068412803D030480068EF
:100A1000452805D12E48007840383049087002E05A
:100A200000202E4908702A4800687B2802D1012046
:100A30002D490870264800687D2802D102202A49E5
:100A400008702948007801280CD12148007800E07E
:100A50008AE02649264A1278885425480078401CA6
:100A6000234908702048007802287DD11F48C078AB
:100A7000502803D101201F490870B3E01B48C078FB
:100A8000572803D101201C490870ABE01748407873
:100A900023286AD0164800781849087068E00000DA
:100AA000004400400438014040420F000010024062
:100AB0000408014078000020F30000207A000020A4
:100AC000F1000020F2000020F00000206F00002064
:100AD000EC0000208D0000206600002002000020B5
:100AE0000000002001000020F4000020CC010020C4
:100AF000F50000207B0000207C000020F600002094
:100B0000BD490978BD4A1278881A08F06CF8804609
:100B100042460B460020BA4907F0DAF804460D4673
:100B2000B6490978491EB74A515CA1F1300008F076
:100B30005AF8064622462B4608F0BCF882468B46F9
:100B4000B148006808F0C6FB52465B46CDE900019B
:100B500007F006FECDE9020107F0D0FDAA490860C2
:100B6000A6480078401E01E049E03BE0A349087038
:100B7000A24800780428C3DAA2484078303809280F
:100B80002FD2DFE800F0050C13181D22272C2D00B2
:100B90009D48006808F02EFD9C49086021E09A48B5
:100BA000006808F027FD9A4908601AE09648006836
:100BB0009849086015E0944800689749086010E07B
:100BC00091480068954908600BE08F480068944997
:100BD000086006E08C4800689249086001E000E087
:100BE00000BF00BF00209049087083490870834906
:100BF0000870854908603221824806F05DFB0020BC
:100C000004B0BDE8F09F89480078F8B188480068D2
:100C10005A281BD00020854A10708548006801289A
:100C200006DB83480068082802DC814801780BE075
:100C30007F480068412807DB7D480068482803DCBE
:100C40007B4800784038C1B2084670477848006851
:100C50005A2802D10120754A10700020F5E72DE9CD
:100C6000F04774480068002801DD002506E071485F
:100C70000068002801DA022500E001256E480068BE
:100C8000002801DD002606E06B480068002801DA34
:100C9000022600E0012669480068002801DD0027DF
:100CA00006E066480068002801DA022700E0012714
:100CB00063480068002802DD4FF0000808E0604843
:100CC0000068002802DA4FF0020801E04FF0010846
:100CD0005C48008800F5004084B2FF20FFF7F5FC77
:100CE000FE20FFF7F2FC53490A68002A01DB114697
:100CF00000E05142C8B2FFF7E8FC2846FFF7E5FCE8
:100D00004D490A68002A01DB114600E05142C8B291
:100D1000FFF7DBFC3046FFF7D8FC48490A68002A99
:100D200001DB114600E05142C8B2FFF7CEFC384665
:100D3000FFF7CBFC42490A68002A01DB114600E0BC
:100D40005142C8B2FFF7C1FC4046FFF7BEFC20127B
:100D5000FFF7BBFCE0B2FFF7B8FCFF2001F06AFE32
:100D6000FE2001F067FE3349D1F80090B9F1000F81
:100D700001DB494601E0C9F10001C8B201F05AFEA9
:100D8000284601F057FE2C49D1F80090B9F1000F28
:100D900001DB494601E0C9F10001C8B201F04AFE99
:100DA000304601F047FE2549D1F80090B9F1000F17
:100DB00001DB494601E0C9F10001C8B201F03AFE89
:100DC000384601F037FE1E49D1F80090B9F1000F06
:100DD00001DB494601E0C9F10001C8B201F02AFE79
:100DE000404601F027FE201201F024FEE0B201F09F
:100DF00021FEBDE8F0870000F5000020F60000208D
:100E000000002440CC010020F8000020BC0000209D
:100E1000C0000020A8000020AC000020B00000208E
:100E2000B4000020B8000020F4000020FC000020E6
:100E3000EC000020080000200C0000201000002022
:100E400014000020D80000201748806940F00800F6
:100E5000154988611548006820F47000134908603E
:100E60000846006840F440100860104808300068E8
:100E700040F400500D4908310860704718B900214E
:100E80000B4A11600FE00B490968491C094A1160BF
:100E9000814208D106490968C943074AC2F8B4111A
:100EA0000021044A1160704700100240040C014008
:100EB000B48121420001002000802142594880690C
:100EC00040F0080057498861574800685749084072
:100ED000554908600846006855490843524908606A
:100EE00051480830006840F480504F49083108608C
:100EF0000846006840F480400860704701464D484D
:100F0000006828B94C480088401C4B4A108002E019
:100F10000020494A10804748006828B947480078AF
:100F200010B90120454A107045480078B0B94348CF
:100F30000078012807D143480078401C414A1070CE
:100F400001203F4A10703F480078022806D1002057
:100F50003C4A10703C4A10800220704735480068B7
:100F6000012804D10020354A1070354A10703548E8
:100F7000007801281CD134480088401C324A108077
:100F80001046008888420ADD2B480088884206DA2D
:100F900000202C4A10702C4A10800120DDE72648E2
:100FA0000088884204DD0020264A1070264A1080FE
:100FB0000020D2E72548007838B11E48006820B9E3
:100FC000002022490870012070471A480068012853
:100FD00001D11E4908700020F6E71D48008840B97D
:100FE0001448006828B91B480088401C194908802B
:100FF00002E000201749088016480088C82807DD4D
:101000000120134908800020124908800120704700
:101010000F480088012802D100200D4908800020D7
:10102000F5E7000000100240040C0140FFFFF0F063
:1010300000000808388121420A0100200401002034
:101040000501002006010020080100200C010020FD
:10105000100100200E01002010B50A461AB101232C
:10106000FE4C236002E00023FC4C2360002116E0CC
:101070000023FA4C3434236000F080031BB10123B9
:10108000241D236003E00023F44C38342360012343
:10109000F24C343423604306180E4B1CD9B2082995
:1010A000E6DB0123ED4C236010BD30B500241CE0CD
:1010B00004F1B001C8B20021FFF7CEFF00210846BD
:1010C000FFF7CAFF00211020FFF7C6FF002508E048
:1010D000E34901EBC501085D0121FFF7BDFF681C75
:1010E000C5B2802DF4DB601CC4B2082CE0DB30BD3F
:1010F00000B500218D20FFF7AFFF00211420FFF77E
:10110000ABFF0021AF20FFF7A7FF00BD00B5002116
:101110008D20FFF7A1FF00211020FFF79DFF002188
:10112000AE20FFF799FF00BD30B500240CE000258C
:1011300006E00020CA4901EBC5010855681CC5B28C
:10114000802DF6DB601CC4B2082CF0DBFFF7ADFF8E
:1011500030BDF0B5144600267F2801DC3F2900DDB4
:10116000F0BD0B46CF1701EB5777FF10C7F107070C
:10117000FAB2CF1701EB5777FF10A1EBC707FDB20B
:10118000C5F107070123BB40DEB24CB1B44B03EB02
:10119000C0039B5C3343B24F07EBC007BB5408E06E
:1011A000AF4B03EBC0039B5CB343AD4F07EBC007F2
:1011B000BB5400BFD4E72DE9F04F80460C461546DE
:1011C0001E46A346A5F12000C5B200273EE00C2E26
:1011D00007D105EB4500A34901EB800010F807900B
:1011E00004E0A14800EB051010F807904FF0000A4A
:1011F00026E009F0800028B121464046099AFFF711
:10120000A8FF09E0099808B9012000E00020024683
:1012100021464046FFF79DFF4FEA49604FEA1069BB
:10122000601CC4B2A4EB0B00B04205D15C4608F1CF
:10123000010000F0FF0806E00AF1010000F0FF0ADB
:10124000BAF1080FD5DB00BF781CC7B2B742BEDBCE
:10125000BDE8F08F10B50246012000E050430B00BE
:10126000A1F10104E1B2F9D110BD2DE9FF4F81B028
:10127000074691461E460E9D4FF0000A002439E0B5
:10128000301B401EC1B20A20FFF7E4FFB9FBF0F0AB
:101290000A21B0FBF1F201FB1208BAF1000F16D1DE
:1012A000701EA04213DDB8F1000F0ED10120AB4635
:1012B00005EBDB71491001FB04710090C8B22B46AD
:1012C00020220299FFF777FF12E04FF0010A012078
:1012D000AB4605EBDB71491001FB04710090C8B20D
:1012E00008F13001CAB22B460299FFF764FF00BF34
:1012F000601CC4B2B442C3DB05B0BDE8F08F78B562
:1013000005460E46144618E07A2D03DD002506F149
:101310001000C6B23A2E04DD002005460646FFF74F
:1013200003FF0120009022780C2331462846FFF766
:1013300042FF05F10800C5B2641C20780028E3D103
:1013400078BD10B54948806940F010004749886170
:101350000846806940F00100886145484068C0F354
:1013600013004349486008464068424908434049E1
:1013700048600846006820F00F00086008460068D2
:1013800040F0020008603C48006840F480703A4930
:1013900008603648006A20F0010034490862374886
:1013A000008820F00100354908803348006820F4A7
:1013B000807031490860002028493C310860642071
:1013C000FEF7F6FF01202E49C1F8BC010021AE2036
:1013D000FFF742FE0021D520FFF73EFE00215020FE
:1013E000FFF73AFE0021A820FFF736FE00213F203C
:1013F000FFF732FE0021D320FFF72EFE0021084622
:10140000FFF72AFE00214020FFF726FE00218D2055
:10141000FFF722FE00211420FFF71EFE00212020EE
:10142000FFF71AFE00210220FFF716FE0021A1207F
:10143000FFF712FE0021C020FFF70EFE0021DA2088
:10144000FFF70AFE00211220FFF706FE002181208F
:10145000FFF702FE0021EF2014E00000800122428D
:10146000FE010020169B00088A9F00080010024021
:10147000001001400000202200700040306C00404D
:1014800000002242FFF7E8FD0021D920FFF7E4FD2C
:101490000021F120FFF7E0FD0021DB20FFF7DCFD5C
:1014A00000213020FFF7D8FD0021A420FFF7D4FD54
:1014B0000021A620FFF7D0FD0021AF20FFF7CCFDD3
:1014C000FFF732FE10BD00006D48806940F0040057
:1014D0006B4988616B48006820F4700069490860B6
:1014E0006748806940F40070654988610846C068B3
:1014F00040F40070C8600846C06820F40070C860FE
:101500000846406820F4404048600846406840F47F
:10151000004048605C4800685C4908405A490860DF
:101520000846006808600846006820F4807008607B
:10153000081D006820F00200091D086008460068C8
:1015400020F4602008600846006840F460200860CD
:101550000846006840F4801008600846006820F4DF
:101560000060086048482830006820F47000464950
:1015700028310860084600680020086042480C30A6
:10158000006820F4700040490C310860084600688B
:1015900040F4603008603C48001D006840F00100E5
:1015A0003949091D08600846006840F008000860D5
:1015B00000BF3548001D006800F008000028F8D181
:1015C0003148001D006840F004002F49091D0860E3
:1015D00000BF2D48001D006800F004000028F8D16D
:1015E0007047014628483030006820F01F00264A26
:1015F0003032106010460068084310602248001D19
:10160000006840F48000204A121D106000BF1E4890
:10161000001F006800F002000028F8D01A48483087
:10162000006880B270472DE9F04F87B00520FFF7C2
:10163000D8FF019007F0EEFA80464FF06632144B67
:1016400007F038FB0022134BCDE9020107F032FB13
:101650000022114BCDE9040107F02CFB06460022C5
:101660000E4B07F039F9044600220D4B07F034F910
:10167000824607F089FA0690069807B0BDE8F08F19
:10168000001002400008014004240140FFFFF00068
:1016900066660A4000002640000059400000F03F06
:1016A0000000B0407D48806940F004007B498861BB
:1016B0000846806940F0080088610846806940F06B
:1016C000100088610846806940F0200088617448F5
:1016D000006820F47020724908600846006840F4F1
:1016E000002008606F48006800F0FF206D49086026
:1016F0000846006840F0221008606A480C30006814
:1017000068490C31086008460068086008460068AF
:1017100008600846006808606348006820F47F009D
:10172000614908600846006840F4081008600846EF
:10173000406820F4702048600846406840F400305B
:1017400048600846C068C8600846C068C860084667
:10175000C068C8605548006820F47060534908604C
:101760000846006840F40070086050480C3000687B
:101770004E490C31086000204D4908604D49C1F8C0
:10178000B0014D4908604D49C1F89401704700B55A
:1017900003460A46FFF786FF4048806940F4005040
:1017A0003E4988610846806940F0100088613E48E3
:1017B000406820F0FF003C4948600846406840F01F
:1017C000BB0048600846006820F07F40086008467B
:1017D000006840F03B40086039480380001F0280E9
:1017E00037481438008840F06000354914390880C3
:1017F0000846008840F4C0400880081D008840F07A
:101800006000091D08800846008840F4C040088038
:10181000081F008840F00800091F0880084600885B
:1018200040F400600880081D008840F00800091D91
:1018300008800846008840F400600880081D008881
:1018400040F00100091D08800846008840F01000A3
:1018500008800846008840F48070088008460088A8
:1018600040F4805008800020154908310880091D87
:101870000880091D0880091D0880081D008840F4A3
:101880000040091D08804FF400400D492C390880A4
:101890000846008840F00100088000BD00100240AA
:1018A00004080140000C01400010014000140140F8
:1018B0008881224200002242908121420080214200
:1018C0002C34014010B5FA48406840F48070F84963
:1018D0004860F848C06940F00100F649C861084610
:1018E000806940F0040088610846806940F0080083
:1018F0008861F148006820F07040EF4908600846B0
:10190000006840F080400860EC48006820F47040B7
:10191000EA4908600846006840F4804008604FF0DB
:101920008040808940F001004FF080418881084666
:10193000808940F04000888101231C220321184641
:10194000FEF76EFD00204FF0804108854FF6FF70D6
:1019500088850846008820F4407008800846008882
:1019600020F0600008800846008B40F001000883EA
:101970000846008B40F4807008830846008C20F0F5
:10198000020008840846008C20F0200008840846E5
:10199000008940F0030008810846008840F00100FB
:1019A000088010BD10B5C348C06940F00200C149AD
:1019B000C8610846806940F008008861BE48001F81
:1019C000006820F07F40BC49091F08600846006895
:1019D00040F088400860BA48008840F00100B849EB
:1019E00008800846008840F04000088001231D223E
:1019F00003211846FEF714FD0020B1491C31088070
:101A00004FF6FF70091D0880AD480C38008820F49F
:101A10004070AB490C3908800846008820F060000F
:101A20000880A7480C30008840F00100A4490C3120
:101A300008800846008840F480700880A048143070
:101A4000008820F002009E49143108800846008872
:101A500020F0200008809A48001F008840F0030012
:101A60009749091F088096480C38008840F001000B
:101A700093490C39088010BD10B58E48C06940F0FC
:101A800004008C49C8610846806940F008008861FC
:101A90008A48006820F07F4088490860084600684E
:101AA00040F0884008608748008840F00100854980
:101AB00008800846008840F04000088001231E226C
:101AC00003211846FEF7ACFC00207E491C3108803B
:101AD0004FF6FF70091D08807A480C38008820F402
:101AE000407078490C3908800846008820F0600072
:101AF000088074480C30008840F0010071490C31B6
:101B000008800846008840F4807008806D481430D2
:101B1000008820F002006B491431088008460088D4
:101B200020F0200008806748001F008840F0030074
:101B30006449091F088063480C38008840F00100A0
:101B400060490C39088010BD10B55A48C06940F092
:101B500008005849C8610846806940F0040088615F
:101B60005548001F006820F0FF005349091F086016
:101B70000846006840F044000860C804808940F0CE
:101B80000100C90488810846808940F040008881AE
:101B90000123322203211846FEF742FC00204A4965
:101BA00008804FF6FF70091D0880474828380088D4
:101BB00020F440704449283908800846008820F005
:101BC0006000088040481038008840F001003E491D
:101BD000103908800846008840F4807008803A4830
:101BE0000838008820F00200374908390880084684
:101BF000008820F02000088033482038008840F01A
:101C000003003149203908802F482838008840F0E7
:101C100001002D492839088010BD0146022906D04F
:101C200003290DD0042914D0052924D11AE04FF03E
:101C30008042928C10B200224FF080439A841CE0C4
:101C40001F4A1832128810B200221D4B18331A8016
:101C500013E01C4A1832128810B20022194B1833B4
:101C60001A800AE0184A121F128810B20022164B7E
:101C70001B1F1A8001E0002000BF00BF70474FF01B
:101C80008040008A4FF08040008A20F001004FF031
:101C90008041088270470A48001D00880848001DDE
:101CA000008820F001000649091D088070470000E7
:101CB000000001400010024004080140000C0140F7
:101CC0000C0400400C080040280C00400848008824
:101CD0000748008820F00100054908807047054842
:101CE00000880448008820F00100024908807047FD
:101CF00010080040100C0040F748806940F00800D0
:101D0000F5498861F548006820F47F40F349086090
:101D10000846006840F44C500860704710B5EF4822
:101D2000006820F47040ED4908600846006840F4FF
:101D3000405008600120EA490860EA48D0F82C01C8
:101D400008B9002010BD0120E549091F0860FEF711
:101D500013FB0020E349C1F8AC01E148803800687A
:101D600008B10020EEE70120FEF706FB0020DC4969
:101D7000091F08600120E5E710B5D848006820F485
:101D80007040D64908600846006840F4405008603A
:101D90000020D349091F0860D249C1F8AC010120D5
:101DA000FEF7EAFA0120CE49091F0860CD49C1F8C3
:101DB000AC01FEF7E1FA10BD10B50024C748006879
:101DC00020F47040C54908600846006840F40040AF
:101DD00008600120C2490860FEF7CEFA0120C1491F
:101DE000C1F8A801FEF7C8FA0AE0601CC4B2322CA0
:101DF00003DDFFF7C1FF002010BD0120FEF7BCFA94
:101E0000B748803800680028EFD1B549091F08603D
:101E10000120F1E710B50020B149091F0860AF4863
:101E2000006820F47040AD4908600846006840F43E
:101E3000405008600020AB49C1F8AC010120FEF71A
:101E40009BFA0120A649091F0860FEF795FA0020B9
:101E5000A449C1F8A80110BD10B50020A049091F70
:101E600008609E48006820F470409C49086008465D
:101E7000006840F44050086001209A49C1F8AC0164
:101E8000FEF77AFA01209649091F0860FEF774FAF6
:101E900000209449C1F8A80110BD70B504468F48D0
:101EA000006820F470408D4908600846006840F4DE
:101EB0004050086000208A49091F0860002516E08C
:101EC000E009874908606006040E0120FEF754FA15
:101ED00001208449C1F8A801FEF74EFA002080498C
:101EE000091F08600120FEF747FA681CC5B2082DDB
:101EF000E6DB70BD2DE9F04105460E4617469846D3
:101F0000FFF70CFF10B90120BDE8F0816906080E4B
:101F1000FFF7C3FFFFF750FF18B9FFF72DFF0120B0
:101F2000F2E73046FFF7B9FFFFF746FF00240BE06A
:101F300018F80400FFF7B1FFFFF73EFF18B9FFF7ED
:101F40001BFF0020E0E7641CBC42F1DBFFF714FF3D
:101F50000020D9E770B5054600246048006820F4E9
:101F600070405E4908600846006840F40040086020
:101F7000002617E000205A49091F08600220FEF7DA
:101F8000FBF901205749C1F8A8016006040E544826
:101F90008038006808B1601CC4B20220FEF7ECF97A
:101FA000701CC6B2082EE5DB15B1FFF733FF01E068
:101FB000FFF752FF204670BD2DE9F04106460F465F
:101FC00014461D46FFF7AAFE10B90120BDE8F081B6
:101FD0007106080EFFF761FFFFF7EEFE18B9FFF775
:101FE000CBFE0120F2E73846FFF757FFFFF7E4FE8C
:101FF000FFF794FE012101EB4601C8B2FFF74DFF48
:10200000FFF7DAFE0DE0012C04D10020FFF7A2FF5C
:10201000287003E00120FFF79DFF28706D1C601EF3
:10202000C4B2002CEFD1FFF7A7FE0020CEE770B5B9
:1020300005460E460024FFF771FE2846FFF72DFFE8
:10204000641CFFF7B9FE3046FFF727FF641CFFF75B
:10205000B3FEFFF763FE691CC8B2FFF71EFF641CE6
:10206000FFF7AAFE0020FFF775FF0446FFF784FE86
:10207000204670BD2DE9F0410746884615461E46AC
:102080000024FFF74BFE3846FFF707FFFFF794FEEB
:102090004046FFF702FFFFF78FFEFFF73FFE791C78
:1020A000C8B2FFF7FAFEFFF787FE00BF0DE0681E1B
:1020B000A04204D00120FFF74DFF305503E000207F
:1020C000FFF748FF3055601CC4B2AC42EFDBFFF7AE
:1020D00053FE2046BDE8F08100100240040C014090
:1020E000AC812142008021422DE9F04180460D461D
:1020F00016461F460024FFF711FE4046FFF7CDFEAF
:10210000FFF75AFE2846FFF7C8FEFFF755FE00BF4F
:1021100006E0385DFFF7C1FEFFF74EFE601CC4B25B
:10212000B442F6DBFFF728FE0120BDE8F08170B570
:1021300005460E46144631462846FFF778FF2070C4
:10214000012070BD37B504460D4602AB0122294679
:102150002046FFF7C9FF3EBD2DE9F84307468846F4
:1021600014461D46089E6A4641463846FFF7DFFF83
:1021700028B3601CFF2101FA00F0C4F108012944D2
:10218000491EFF220A41104300F0FF09C5F1080073
:1021900006FA00F0C6B2C4F1070006419DF800003F
:1021A00000EA090000909DF80000304300909DF87F
:1021B000002041463846FFF7C5FFBDE8F883002000
:1021C000FBE7F8B506460F4614461D466A463946F3
:1021D0003046FFF7ACFF2DB10120A0409DF8001064
:1021E000084305E00120A0409DF8001021EA00000E
:1021F000C0B200909DF8002039463046FFF7A2FF9C
:10220000F8BD000010B51248806940F00800104980
:1022100088611048006820F070400E490860084648
:10222000006840F0004008600A480830006840F448
:10223000004008490831086001220F211046FEF7CE
:1022400029F90223282201211846FEF7E9F810BDDA
:1022500000100240040C01402DE9F04704460D46F1
:1022600016461F46DDF820904FF0000814B10DB15E
:1022700006B117B90120BDE8F087601EC4B2681E20
:10228000C5B2701EC6B2781E87B2FE48806940F0A3
:102290000100FC4988610846806940F008008861B7
:1022A0000846C06940F00070C861F748006820F037
:1022B000FF00F54908600846006840F0B800086073
:1022C000F1480830006840F44070EF490831086078
:1022D000EE48406840F48040EC4948600020EC49FA
:1022E00008600846006840F00100086008E008F156
:1022F00001001FFA80F8B8F1640F01DD0220BAE78F
:10230000E348001D006800F001000028EFD0E0481D
:102310000068DF49086008460068086008460068F1
:1023200008600846006840F0100008600846006831
:1023300008600846006808600020D5491C31086024
:102340000846006840EA897008600846006840EA6C
:10235000046008600846006840EA055008600846C6
:10236000006840EA06400860084600683843086094
:10237000C748006820F00100C549086009E008F17D
:1023800001001FFA80F84FF6F070804501DD032050
:1023900071E7BF48001D006800F001000028EED181
:1023A000BC48006840F00100BA490860B9481C30D8
:1023B000006820F00100B7491C310860B5480C30B6
:1023C000006840F00100B3490C310860B148001DBD
:1023D0000068B049091D0860AE4814300068AD4976
:1023E000143108600020AB49403108600021A94841
:1023F00044300160A7481C30006840F00100A54946
:102400001C310860A34800680020A2490860A04869
:102410001430006840F002009D4914310860022326
:10242000142200210120FDF7FBFF002023E7F0B577
:1024300005460E46059C96480830006800F080600E
:1024400008B1002111E092480830006800F00060F7
:1024500008B1012109E08E480830006800F0805082
:1024600008B1022101E0FF20F0BD00278948803833
:1024700000EB011007601EB9C5F30A056D0502E007
:1024800025F06045ED008348803800EB01100068BE
:102490002843804F803F07EB011738607D48803824
:1024A00000EB0110006840EA86077A48803800EBAC
:1024B000011007607748803800EB0110006840EA9F
:1024C00042077448803800EB0110076003F00F03E7
:1024D0007048803800EB0110406820F00F076D480D
:1024E000803800EB011047606A48803800EB01102B
:1024F00040681843674F803F07EB01177860E07929
:102500000006A77940EA0740677940EA0727207963
:1025100007436048803800EB0110C760E078000690
:10252000A77840EA0740677840EA072027783843D1
:10253000584F803F07EB0117B8605648803800EBD2
:102540000110006840F001075248803800EB01108C
:102550000760084688E70146002021B1012916D00E
:1025600002293CD127E04A4A0832126802F00102EF
:102570001043474A0832126802F002021043444AEC
:102580000832126802F0806240EA126029E0404A94
:102590000832126802F0010210433D4A0832126804
:1025A00002F0020210433A4A0832126802F0006256
:1025B00040EA526015E0364A0832126802F0010221
:1025C0001043334A0832126802F002021043304AC4
:1025D0000832126802F0805240EA926001E0052061
:1025E00000BF00BF7047014629B929480C30006878
:1025F00000F003007047012905D12548103000681C
:1026000000F00300F6E70020F4E7F0B5DDE905543B
:10261000204E503E06EB0016366806F00406167093
:1026200016783EB91B4E503E06EB00163668760D06
:102630000E6006E0174E503E06EB00163668F608B0
:102640000E60144E503E06EB0016366806F0020689
:102650001E70104E503E06EB0016766806F00F0610
:102660002E700C4E503E06EB0016B6682670094ED2
:10267000503E06EB0016B668360A6670054E503EB0
:102680000AE0000000100240040C0140000001407C
:10269000006400400066004006EB0016B668360C89
:1026A000A670D24E06EB0016B668360EE670CF4E18
:1026B00006EB0016F6682671CC4E06EB0016F6689F
:1026C000360A6671C94E06EB0016F668360CA6711E
:1026D000C64E06EB0016F668360EE67130B9C44EEB
:1026E000366846F02006C24F3E6009E0012807D157
:1026F000BF4E361D366846F02006BD4F3F1D3E607A
:10270000F0BD10B58AB0BBA103C9CDE9040102A890
:1027100006A907AB08AACDE9001009A90020FFF718
:1027200074FF00240FE0072C04D102A8005DB34918
:1027300008700AE002A8005D04A9095D884200D083
:1027400003E0601CC4B2072CEDDD00BF40F2211194
:102750000998884207D1A948007820B1A848029971
:102760000160039941600AB010BDF8B505460E46F8
:10277000002433460022114640F201600095FFF725
:1027800056FE074601E0601C84B23846FFF7E3FEC0
:10279000072803D040F6FF708442F4DB40F6FF7058
:1027A000844201DB0120F8BD0020FCE710B586B0B3
:1027B00004460020FFF717FF10B9002006B010BD37
:1027C00002A803AB04AA05A9CDE900040020FFF785
:1027D0001CFF0598122805D19DF8100010B99DF82E
:1027E0000C0008B1002002909DF80800E6E7F8B55B
:1027F00005460E46002433460022114640F2017081
:102800000095FFF714FE074601E0601C84B23846CD
:10281000FFF7A1FE072803D040F6FF708442F4DBE7
:1028200040F6FF70844201DB0120F8BD0020FCE788
:10283000F8B506460D46002408230022114630460E
:102840000095FFF7F4FD074601E0601C84B23846AE
:10285000FFF781FE072803D040F6FF708442F4DBC7
:1028600040F6FF70844201DB0120F8BD0020FCE748
:102870002DE9FC5F63480068002801DD002406E0C4
:1028800060480068002801DA022400E001245E4864
:102890000068002801DD002506E05B48006800288C
:1028A00001DA022500E0012558480068002801DD12
:1028B000002606E055480068002801DA022600E0FC
:1028C000012653480068002801DD002706E0504833
:1028D0000068002801DA022700E001274D494E4830
:1028E000006806F023FF4D49009006F01FFD01909F
:1028F00006F09CFE1FFA80F846494948006806F039
:1029000015FF4649009006F011FD019006F08EFE7D
:102910001FFA80F93F494348006806F007FF3F4926
:10292000009006F003FD019006F080FE1FFA80FA89
:102930003D48808800F500401FFA80FB3B48007846
:1029400008B9012000E000203849087008460078E6
:10295000C8B94FEA28203649087081F801804FEA4B
:102960002920887081F803904FEA2A20087181F8A5
:1029700005A04FEA2B20887181F807B04FF48070D2
:10298000FFF756FF30E01F490868002801DB0146C9
:1029900000E04142264A1170104644701A49086806
:1029A000002801DB014600E04142214A91701046B7
:1029B000C57016490868002801DB014600E0414265
:1029C0001B4A11711046467111490868002801DB45
:1029D000014600E04142164A91711046C771014616
:1029E00040F20110FFF724FFBDE8FC9FB0650040F6
:1029F0000C6400400A0C0F13181E250077000020FD
:102A000067000020080000200C00002010000020BB
:102A1000140000200000C842900000200060EA4638
:102A20009400002098000020940100201201002052
:102A30007D0000206849088000BF6749091F098898
:102A400001F040010029F8D070472DE9F05F0546FC
:102A50000E46300106F022FE8146604905FB01F07A
:102A600006F01CFE8246494606F0CEFC0746384674
:102A700006F0DCFD84B2204606F010FE834639469F
:102A800006F051FF82464FF0834106F04FFE81462B
:102A900006F0CCFD80464FF6FF7000EA041404EB0C
:102AA000080084B24E48806940F001004C498861BA
:102AB0000846806940F0100088610846C06940F40B
:102AC0008020C8614748406820F47F4045494860FD
:102AD0000846406840F40B4048600846C06840F42F
:102AE0008060C8604048406840F010003E4948603F
:102AF0003B48006940F48020394908610846006974
:102B000020F4802008613448001D0480001D0088E6
:102B100042F20C0108433049083108800846008819
:102B200040F4807008800846008840F0200008804B
:102B30000223272201210020FDF772FCBDE8F09F4F
:102B400010B52548001F008800F02000002841D063
:102B50002648007850B926480078401CC0B2244965
:102B600008700A2802DD0120204908701A480088F0
:102B7000C4B2204606F092FD1E4908601E48007847
:102B800068B91E480078FE2809D11D480078FF2842
:102B900005D101201849087000201A49087016480C
:102BA000007801280FD1184816490978445415486F
:102BB0000078401C1349087008460078082802D1A4
:102BC00000200D4908700D4800780D4908700B4829
:102BD000047000BF002010BD0448004040420F00B8
:102BE0000010024000100140000001407800002069
:102BF00016010020600000207A000020140100204F
:102C000015010020130100206F000020FD4880699D
:102C100040F00400FB4988610846806940F01000DC
:102C20008861F948006820F47060F7490860084638
:102C3000006840F400600860F248806940F01000CD
:102C4000F0498861F04800684FF2F0018843EE498E
:102C500008600846006843F230010843EA4908600A
:102C6000EA48006820F47020E849086008460068D7
:102C700040F440300860704738B5044601200090A9
:102C80000020E3494870012000902DE0BDF80000CD
:102C9000204018B10120DF49086002E00020DD4932
:102CA00008600120DC4908600520FDF765FB002075
:102CB000DA49C1F890010520FDF75EFB0120D749F4
:102CC000C1F89001D648D0F8080130B1D04840781A
:102CD000BDF800100843CE494870BDF800004FF61B
:102CE000FF7101EA40000090BDF80000FF28CDDD33
:102CF0001020FDF741FB38BD10B50020C549083153
:102D00000860C8490878FFF7B7FFC6494878FFF759
:102D1000B3FF0120C249C1F88C01BD484078732837
:102D200001D1002010BD0120FCE71CB5002001905E
:102D3000012000900020B74908310860B94908789F
:102D4000FFF79AFFB7494878FFF796FF02200190F6
:102D500035E00120009026E00120AF490860052001
:102D6000FDF70AFB0020AD49C1F890010520FDF7F1
:102D700003FB0120A949C1F89001A948D0F8080136
:102D800050B1A3489DF80410405CBDF80010084302
:102D90009F499DF804208854BDF800004FF6FF714C
:102DA00001EA40000090BDF80000FF28D4DD1020AB
:102DB000FDF7E2FA9DF80400401CC0B201909DF8B6
:102DC00004000928C5DB01209249083108601CBDB8
:102DD000002004E000218E4A1154411CC8B2092889
:102DE000F8DB704710B5FFF7F3FFFFF79EFF884849
:102DF000C0788749097940EA01208B49088000247E
:102E00000FE08A4810F81400401E012101FA00F07A
:102E100085490988084010B9601CC0B210BD601C0B
:102E2000C4B2102CEDDB0020F8E701467848405C86
:102E3000704770B505460C46002076490831086099
:102E40001020FDF799FA0120FFF716FF4220FFF747
:102E500013FF0020FFF710FF2846FFF70DFF204665
:102E6000FFF70AFF0020FFF707FF0020FFF704FF2E
:102E70000020FFF701FF0020FFF7FEFE0120684958
:102E8000C1F88C011020FDF777FA70BD10B5002055
:102E90006049083108601020FDF76EFA0120FFF745
:102EA000EBFE4220FFF7E8FE0020FFF7E5FE0020E2
:102EB000FFF7E2FE0020FFF7DFFE01205849C1F8CE
:102EC0008C011020FDF758FA10BD10B500205149B3
:102ED000083108601020FDF74FFA0120FFF7CCFE03
:102EE0004320FFF7C9FE0020FFF7C6FE0120FFF7D1
:102EF000C3FE0020FFF7C0FE0020FFF7BDFE00204C
:102F0000FFF7BAFE0020FFF7B7FE0020FFF7B4FE80
:102F100001204349C1F88C011020FDF72DFA10BDA6
:102F200010B500203B49083108600120FFF7A4FEDE
:102F30004420FFF7A1FE0020FFF79EFE0120FFF7CF
:102F40009BFE0320FFF798FE0020FFF795FE002070
:102F5000FFF792FE0020FFF78FFE0020FFF78CFEA8
:102F600001202F49C1F88C011020FDF705FA10BD92
:102F700010B500202749083108601020FDF7FCF942
:102F80000120FFF779FE4D20FFF776FE0020FFF7C6
:102F900073FE0020FFF770FE0120FFF76DFE012099
:102FA0001F49C1F88C011020FDF7E6F910BD10B5DE
:102FB00000201849083108601020FDF7DDF90120D4
:102FC000FFF75AFE4320FFF757FE0020FFF754FE9D
:102FD0000020FFF751FE5A20FFF74EFE5A20FFF760
:102FE0004BFE5A20FFF748FE5A20FFF745FE5A20B5
:102FF000FFF742FE01200A49C1F88C011020FDF7BD
:10300000BBF910BD00100240001001400008014053
:10301000FE0500208401224290012142000021424D
:10302000000022421A010020180100201C0100208B
:1030300010B5FFF72BFFFFF729FFFFF727FFFFF77B
:1030400044FFFFF76DFFFFF7B2FF10BD10B50E484C
:10305000007898B10720FFF7E8FE0C4908600820C7
:10306000FFF7E3FE0A4908600520FFF7DEFE094985
:1030700008600620FFF7D9FE07490860FFF7B2FE97
:103080000649086010BD000079000020C40000203F
:10309000C8000020CC000020D0000020D400002078
:1030A0002DE9F04104460D46FE49284606F03EFB58
:1030B000804684F000474146384606F03FFC06460D
:1030C00006F098FAF8490860F649284606F02EFB03
:1030D000804684F000474146384606F027F9064608
:1030E00006F088FAF1490860BDE8F0810146002940
:1030F00001DA484200E00846704700B503460A4638
:10310000002B07DA0120EA4908600020E949C1F8EC
:10311000880106E00020E64908600120E549C1F881
:1031200088011846FFF7E2FFE3490880002A08DA21
:103130000120DF49091D08600020E049C1F8B00105
:1031400007E00020DA49091D08600120DB49C1F8C9
:10315000B0011046FFF7CAFFD749091D088000BD1E
:10316000D74909684242914202DA4142D44A116089
:10317000D3490968814201DDD1490860D149096814
:103180004242914202DA4142CE4A1160CD49096879
:10319000814201DDCB49086070472DE9F05F0446AC
:1031A0000D46601BC84908600846006806F05EFAD4
:1031B0008346C6480168584606F0B8FA8046C249B8
:1031C0000968C34A1268881A06F050FA8346C14853
:1031D0000168584606F0AAFA8146414606F0A6F86C
:1031E0000746BD48006806F041FA8246394606F0B7
:1031F0009DF8064606F0FEF9B749086008460068E3
:10320000B0F5E15F02DD4FF4E1500860B2480068BC
:1032100010F5E15F02DAB148AF490860AA480068DA
:10322000AB490860AC480068BDE8F09F2DE9F05F4D
:1032300004460D46601BAA4908600846006806F06F
:1032400015FA8346A1480168584606F06FFA804691
:10325000A3490968A34A1268881A06F007FA834648
:103260009C480168584606F061FA8146414606F0DE
:103270005DF807469C48006806F0F8F98246394632
:1032800006F054F8064606F0B5F997490860084676
:103290000068B0F5E15F02DD4FF4E150086092484C
:1032A000006810F5E15F02DA8C488F4908608C48AD
:1032B00000688C4908608C480068BDE8F09F10B534
:1032C0000446002C76D189480078092870D2DFE8BE
:1032D00000F0050B15232E3C475660000020844962
:1032E00008608449086064E08348006806F0BEF91D
:1032F0007F49086000207F4908605AE07E480068E6
:1033000006F0B4F97A4908607B480068404206F04C
:10331000ADF9784908604CE00020754908607648AE
:103320000068404206F0A2F97249086041E0724824
:103330000068404206F09AF96D4908606E480068DE
:1033400006F094F96B49086033E06B48006840422E
:1033500006F08CF96649086000206649086028E09C
:1033600065480068404206F081F96149086062489A
:103370000068404206F07AF95E49086019E00020D2
:103380005B4908605C48006806F070F959490860BC
:103390000FE05948006806F069F955490860564839
:1033A000006806F063F95349086002E002E0FFE7B5
:1033B00000BF00BF4F4801684D480068FFF770FE2E
:1033C00010BD0146B1F5FA6F02DB4C4A126832B902
:1033D00001200022384B1A801B1D1A8000E00020BB
:1033E00070472DE9FE4F142645480078012803D088
:1033F0004448007801281CD14348807810B14FF030
:10340000010901E04FF0FF393F48C07810B14FF09B
:10341000010A01E04FF0FF3A3B48007800FB09F059
:10342000214908603848407800FB0AF01F490860CD
:1034300096E03648007801286ED135480068A0F142
:10344000800434480068A0F180057042844202DDA7
:10345000B44200DA00247042854202DDB54200DA4F
:1034600000256042244909684843962190FBF1F702
:10347000384606F0FBF81F49086068421E49096893
:103480004843962190FBF1F7384606F0EFF81849CB
:10349000086000211648006806F014F941D215486A
:1034A00000683AE0CDCC8C3E4C000020500000205B
:1034B00090812142008022423434014000002242A7
:1034C0003C000020400000205C010020B8000020EB
:1034D00064010020B400002060010020E0E3FFFF51
:1034E000500100205801002054010020020000205B
:1034F000A0000020A4000020BC00002030012142D8
:10350000770000207800002067000020790000206C
:10351000C4000020C800002022E080F0004087495D
:1035200008608648006805F0D5FE854A854BCDE9E0
:10353000000105F0BFFB074605F0E0F8834682482E
:10354000006805F0C7FE0746804A814B05F0B2FBD4
:10355000CDE9000105F0D2F859460290FFF7A0FD31
:10356000BDE8FE8F10B56420FDF7C8FC0446022CB0
:1035700007D17848007808B9012000E0002075499B
:10358000087010BD70B57448006800287ED14FF4F3
:103590000040724908607248007808B9012000E0D4
:1035A00000206F4908706F48007801280BD16E48E1
:1035B0000078401CC0B26C4908700A2803D1002072
:1035C00008706849087066480078012815D1674876
:1035D000007860B96648007848B9664800780128E4
:1035E00005D1654865490A6802604968416003F091
:1035F00027F9FFF7B7FF002070BD0220FEF70DFB93
:103600005F4908600868C11700EB5171C9105D4A35
:1036100011605D4800681146096808445A4908600D
:103620000320FEF7FAFA4042584908600868C117BB
:1036300000EB5171C910564A116056480068114696
:10364000096808445349086003F0FAF86420FDF75C
:1036500015FCFDF7E8FF054606F008F804464E485D
:103660000168204605F062FE4B4908604FF07E512C
:103670004A48006805F05AFE48490446086048492F
:1036800005F084FF10D14649434800E053E000684C
:1036900005F0BAFE044605F0ADFF4249086000207F
:1036A0003D4908603D4908603F480068042807D14B
:1036B00001202F49087000203C4908702D490870EE
:1036C0003A480078012807D02A480078012803D01A
:1036D00027480078012801D1FFF783FE31480068B0
:1036E000FFF76FFE38BB3148007848B921480078B1
:1036F00030B91F48007818B92D480078FFF7DFFD72
:103700002C4801681F480068FFF790FD2A490860AF
:103710002A4801681E480068FFF73FFD28490860F5
:1037200041F6F420FFF71CFD234801682448006897
:103730004042FFF7E2FC00205EE70000A40000200A
:1037400017B7D100DE02F63FA000002062A1D634F8
:10375000EF38E93F040000203C812142140401407D
:103760003C01002065000020640000207A00002059
:103770007900002078000020670000206F00002002
:10378000DC0000200800002018000020E0000020DD
:103790000C0000201C0000204401002040010020FB
:1037A0000000C8425C000020D40000207700002008
:1037B000660000204C0000203C000020500000204B
:1037C0004000002038B50446FB4890F82400C0B102
:1037D00014B10220009001E000200090F64A126827
:1037E000D17BF54A526810786B460122FEF782FBC6
:1037F00010B14FF0FF3038BD9DF80010EE48417415
:1038000023E0ED48807A10B94FF0FF30F3E724B1A0
:10381000E948407C08B10020EDE714B10120009098
:1038200001E000200090E44A1268D17BE24A52682D
:1038300010786B460122FEF75DFB10B14FF0FF30B0
:10384000D9E79DF80010DC4841740020D3E738B573
:10385000002419E0D8480068C07AA04204D0D648B5
:103860000068407DA04200D10CE0D3494968087847
:103870006B4601222146FEF79FFB10B14FF0FF304F
:1038800038BD00BF601CC4B2CB4840680079A0427C
:10389000E0DC0020F4E770B504460D46C648006839
:1038A000C07AA04204D0C4480068407DA04202D142
:1038B0004FF0FF3070BDC04840680079A04202DC84
:1038C0004FF0FF30F6E7BC49496808782B460122E3
:1038D0002146FEF771FBEDE738B50446B64890F88F
:1038E0002300A04201D1002038BD14B13020009047
:1038F00001E000200090B048807C20B19DF80000DD
:1039000040F002000090AC4890F8220020B19DF8F1
:10391000000040F080000090A74A1268117DA64A7E
:10392000526810786B460122FEF7E4FA10B14FF0AE
:10393000FF30D9E7A04880F823400020D4E738B50D
:10394000044604F0700010B10120009005E014B1AD
:103950000020009001E040200090974A1268917C7E
:10396000954A526810786B460122FEF7C3FA20B1DF
:10397000002191488172481E38BD9DF8000020F05A
:1039800040018D4801730020009004F0400020B9F0
:103990009DF8000040F00400009004F0200020B9E1
:1039A0009DF8000040F00200009004F0100020B9E3
:1039B0009DF8000040F00100009004F0080020B9DC
:1039C0009DF8000040F0380000907B4A1268D17CDE
:1039D000794A526810786B460122FEF78BFA20B1C3
:1039E000002175488172481EC6E724B1082C02D018
:1039F0000020FFF771FF70488472002101753220AA
:103A0000FCF7D6FC0020B7E738B504466A48807C4E
:103A1000A04201D1002038BD002C46D0664A126871
:103A20001179654A526810786B460122FEF7C4FA94
:103A300010B14FF0FF30EEE79DF8000020F02000BD
:103A400000905D4A126811795B4A526810786B46A3
:103A50000122FEF74FFA10B14FF0FF30DBE70320F1
:103A6000FCF7A6FC02200090534890F8220020B1F9
:103A70009DF8000040F0800000904F4890F823002F
:103A800020B19DF8000040F0300000904A4A1268D2
:103A9000117D494A526810786B460122FEF72AFAD6
:103AA000002851D04FF0FF30B5E7434A1268117932
:103AB000414A526810786B460122FEF77DFA10B138
:103AC0004FF0FF30A7E73C48807A00F0010028B1B2
:103AD0009DF8000040F02000009004E09DF80000F8
:103AE00020F020000090344A12681179324A52685E
:103AF00010786B460122FEF7FDF910B14FF0FF3050
:103B000089E70320FCF754FC2B4890F8220010B101
:103B10008020009001E000200090274890F82300CA
:103B200020B19DF8000040F030000090224A126859
:103B3000117D214A526810786B460122FEF7DAF9AE
:103B400010B14FF0FF3066E71B488474002062E735
:103B500008B51948807A10B94FF0FF3008BD002031
:103B60000090154A1268D17B134A526810786B4650
:103B70000122FEF7BFF910B14FF0FF30EEE70E4A19
:103B8000126851790C4A526810786B460122FEF790
:103B9000B1F910B14FF0FF30E0E7074A1268117930
:103BA000054A526810786B460122FEF7A3F928B146
:103BB0004FF0FF30D2E7000068010020F74890F88E
:103BC0002400002850D00C200090F44A126811798B
:103BD000F24A526810786B460122FEF78BF910B159
:103BE0004FF0FF30BAE7C0200090EC48807A00F038
:103BF000010020B19DF8000040F020000090E74A4D
:103C000012681179E54A526810786B460122FEF776
:103C100071F910B14FF0FF30A0E7E048407C10B1DF
:103C20000220009001E000200090DC4A1268D17B65
:103C3000DA4A526810786B460122FEF75BF910B140
:103C40004FF0FF308AE700200090D44A1268517983
:103C5000D24A526810786B460122FEF74BF90028D1
:103C600052D04FF0FF3079E704200090CB4A126821
:103C70001179CA4A526810786B460122FEF73AF968
:103C800010B14FF0FF3069E7C448807C20B9C348C9
:103C9000807A00F0010010B94020009001E060201F
:103CA0000090BE4A12681179BC4A526810786B467F
:103CB0000122FEF71FF910B14FF0FF304EE7B74871
:103CC000407C10B10120009001E000200090B34A38
:103CD0001268D17BB14A526810786B460122FEF718
:103CE00009F910B14FF0FF3038E7AC4A126851794A
:103CF000AA4A52681078A94B10330122FEF7FAF84D
:103D000010B14FF0FF3029E7002027E770B50446D7
:103D1000002624F00104A14890F8240008B10020F6
:103D200070BD9E48807A10B94FF0FF30F8E79B488D
:103D3000057C807A2040994908740846007CA0429E
:103D400002D04FF0FF3600E0002614B99348007D02
:103D500018B10120FFF736FD02E00020FFF732FD29
:103D60003CB1FFF7F5FE20B18C4805744FF0FF30F1
:103D7000D6E73046D4E738B504468848807A10B98B
:103D80004FF0FF3038BDBC2C02DB0120009015E065
:103D9000622C02DB0220009010E02A2C02DB0320C0
:103DA00000900BE0142C02DB0420009006E00A2CAB
:103DB00002DB0520009001E0062000907748C07AE1
:103DC0009DF80010884201D10020DBE7734A126899
:103DD0009178724A526810786B460122FEF78AF891
:103DE00010B14FF0FF30CDE79DF800106B48C17265
:103DF0000020C7E738B50446282C02DD4FF0FF301D
:103E000038BDDCB90020FFF767FD00208DF8000009
:103E100007208DF80100614A1268917C5F4A526860
:103E200010786B460222FEF765F810B14FF0FF30B4
:103E3000E6E70021594801750020E1E70120FFF77E
:103E40004BFD20208DF80000012C06D100208DF8BC
:103E500001000520FFF78FFF17E0052C06DC01208D
:103E60008DF801000520FFF786FF0EE0142C06DC1C
:103E700002208DF801000A20FFF77DFF05E00320F6
:103E80008DF801001420FFF776FF9DF8010007214F
:103E900001EB8010C0B28DF80100404A1268917C9D
:103EA0003E4A526810786B460222FEF723F810B1A2
:103EB0004FF0FF30A4E708213848817200210173D8
:103EC000012101750020FFF721FF002098E738B598
:103ED00004463248807A10B94FF0FF3038BD2F4881
:103EE00090F8240010B14FF0FF30F7E72B48007D29
:103EF00050B134B1282C04DCE0B2FFF77BFF002086
:103F0000ECE70020FFF776FF042C01DA042404E03C
:103F1000B4F57A7F01DD4FF47A744FF47A7090FB38
:103F2000F4F0401EC0B200901C4A126851781B4A3F
:103F3000526810786B460122FDF7DCFF10B14FF09C
:103F4000FF30CBE79DF80000401C4FF47A7191FBE5
:103F5000F0F081B21148C1810146C9894810FFF7CC
:103F60000AFF0020BAE738B504460C48807A10B939
:103F70004FF0FF3038BD022C06D0042C07D0082C9F
:103F800008D0102C0FD10BE0002000900EE008208C
:103F900000900BE01020009008E000006801002075
:103FA0001820009002E04FF0FF30E3E700BFF9482F
:103FB000407A9DF80010B0EBE10F01D10020D9E765
:103FC000F44A1268D179F34A526810786B4601229C
:103FD000FDF790FF10B14FF0FF30CBE79DF80000E8
:103FE000C110EC4841720020C4E738B50446E948E6
:103FF000807A10B94FF0FF3038BDFA2C09D0B4F5F3
:10400000FA7F09D0B4F57A7F09D0B4F5FA6F0CD1F4
:1040100008E0002000900BE00820009008E010204D
:10402000009005E01820009002E04FF0FF30E3E739
:1040300000BFD848007A9DF80010B0EBE10F01D125
:104040000020D9E7D34A12689179D24A5268107891
:104050006B460122FDF74EFF10B14FF0FF30CBE76A
:104060009DF80000C010CB4908720020C4E71CB5C1
:1040700080208DF80000C74A1268917CC54A5268BA
:1040800010786B460122FDF735FF10B14FF0FF307D
:104090001CBD6420FCF78CF900208DF80000BD4A9F
:1040A0001268917CBB4A526810786B460122FDF77A
:1040B00021FF10B14FF0FF30EAE7B64A1268917D58
:1040C000B44A526810786B460622FDF775FF10B1AE
:1040D0004FF0FF30DCE79DF80500C007400F9DF86A
:1040E000031001F0010140EA41009DF8011001F0C8
:1040F000010140EA010494B1012C03D10121A5483A
:10410000C17431E0022C03D10021A248C1742BE01C
:104110002146A1A003F022F84FF0FF30B8E79D4AF6
:104120001268D1789B4A526810786B460122FDF7DD
:1041300043FF10B14FF0FF30AAE79DF8000000F0F8
:104140000F042CB99E4803F009F84FF0FF309FE7A9
:10415000042C06D19BA003F001F801218D48C17405
:1041600002E000218B48C174FF218A488172FF2040
:1041700088490872FF2187484172C1724FF6FF716A
:10418000C181FF21017481740121017380F8221023
:10419000002180F8231041750175163001604160DF
:1041A0008160163880F8241080F82510C1844FF4FF
:1041B000FA60FFF71AFF10B14FF0FF3068E70220F6
:1041C000FFF7D1FE10B14FF0FF3061E72A20FFF773
:1041D000D2FD10B14FF0FF305AE73220FFF777FEE3
:1041E00010B14FF0FF3053E70020FFF78FFD10B103
:1041F0004FF0FF304CE70020FFF706FC10B14FF006
:10420000FF3045E70020FFF79AFB002040E77047AA
:104210007CB504460D465F48807A00F0700010B906
:104220004FF0FF307CBD5B4A1268117B594A5268DF
:1042300010786B460622FDF7BFFE10B14FF0FF303D
:10424000F0E79DF801009DF8001040EA012000B25F
:1042500020809DF803009DF8021040EA012000B282
:1042600060809DF805009DF8041040EA012000B22E
:10427000A08015B12846FFF7CAFF0020D2E77CB521
:1042800004460D464348807A00F0080010B94FF00C
:10429000FF307CBD3F4A1268517B3E4A526810781D
:1042A0006B460622FDF788FE10B14FF0FF30F0E7B5
:1042B0009DF801009DF8001040EA012000B2208026
:1042C0009DF803009DF8021040EA012000B26080D2
:1042D0009DF805009DF8041040EA012000B2A0807E
:1042E00015B12846FFF793FF0020D2E72DE9FE4FD6
:1042F00005460C462748807A18B94FF0FF30BDE8D4
:10430000FE8F244A1268917B224A5268107802ABD1
:104310000222FDF751FE10B14FF0FF30EFE79DF89C
:1043200009009DF8081040EA012006B214B12046A9
:10433000FFF76DFF17494968C88805F0AFF91549BF
:1043400001904968B1F9080005F090F983463046BC
:1043500005F08CF95946009005F0F0FA8246019973
:1043600005F052F881461F4904F0E0FF80464FF007
:104370008F4105F0DBF9074605F03CF92860002085
:10438000BDE710B588B004461CB94FF0FF3008B047
:1043900010BD29E068010020556E737570706F7252
:1043A00074656420736F6674776172652070726FD4
:1043B00064756374207265762025642E0A000000FF
:1043C00040B3000848616C662073656E7369746958
:1043D00076697479207061727420666F756E642ED0
:1043E0000D0A000000000C42206830B9606820B956
:1043F000A06810B9002008B010BDFA4949680878D3
:1044000006AB03221146FDF7D7FD10B14FF0FF3088
:10441000F1E79DF81800082101EB201000F00F00D3
:10442000ADF800009DF8190001EB201000F00F001E
:10443000ADF802009DF81A0001EB201000F00F000B
:10444000ADF8040020684100BDF90000403091FB48
:10445000F0F000B2ADF8100060684100BDF9020054
:10446000403091FBF0F000B2ADF81200A0684100BE
:10447000BDF90400403091FBF0F000B2ADF814003B
:10448000D8494968087806AB06221146FDF794FD25
:1044900010B14FF0FF30AEE79DF819009DF81810ED
:1044A00040EA012000B2ADF808009DF81B009DF81D
:1044B0001A1040EA012000B2ADF80A009DF81D0074
:1044C0009DF81C1040EA012000B2ADF80C00BDF8C8
:1044D0001000BDF80810084400B2ADF81000BDF897
:1044E0001200BDF80A10084400B2ADF81200BDF881
:1044F0001400BDF80C10084400B2ADF81400BDF86B
:104500001000000A8DF81800BDF81000C0B28DF838
:104510001900BDF81200000A8DF81A00BDF812004B
:10452000C0B28DF81B00BDF81400000A8DF81C0005
:10453000BDF81400C0B28DF81D00AA49496808787A
:1045400006AB06221146FDF7D5FC10B14FF0FF3047
:1045500051E700204FE70146A248007A30B1012818
:1045600007D0022809D003280FD10AE0FA200880DA
:104570000EE04FF4FA7008800AE04FF47A70088079
:1045800006E04FF4FA60088002E00020088000BFD7
:1045900000BF0020704701469248407A30B10128A0
:1045A00007D0022808D003280CD108E002200870A8
:1045B0000BE00420087008E00820087005E01020D7
:1045C000087002E04FF0FF30704700BF8548C07CA4
:1045D00018B108784006000E08700020F4E7014684
:1045E0008048C07A082817D2DFE800F01704070ACD
:1045F0000D101318BC20088013E06220088010E022
:104600002A2008800DE0142008800AE00A20088093
:1046100007E00520088004E000BF00BF00200880FC
:1046200000BF00BF0020704701466E4890F824008C
:1046300010B14FF0FF3070476A48C08908800020F1
:10464000F9E7014600200880401E704701464FF000
:10465000FF30704701466348007A30B1012807D027
:10466000022808D003280CD108E05F4808600BE05E
:104670005E48086008E05E48086005E05D48086044
:1046800002E04FF0FF30704700BF0020FBE701461B
:104690005448407A30B1012808D002280AD00328B3
:1046A00010D10BE04FF4804008800EE041F69C7082
:1046B00008800AE04FF48050088006E04FF4006064
:1046C000088002E04FF0FF30704700BF4548C07CD3
:1046D00010B10888401008800020F5E701464148E5
:1046E000007C08700020704701463E48807A10B177
:1046F0000120087001E0002008700020704738B5E4
:1047000004463848807A10B94FF0FF3038BD354A3A
:104710001268117C334A526810786B460222FDF70A
:104720004BFC10B14FF0FF30F0E79DF801009DF811
:10473000001040EA012000B220800020E6E72DE9C9
:10474000FE4F0746884692461D46DDF830B00026EB
:104750000024244890F8240010B1601EBDE8FE8FAC
:10476000002028701F48807A10B94FF0FF30F5E71D
:104770001C48007C10B94FF0FF30EFE71948007C6F
:1047800000F0400008B1B01CC6B21648007C00F032
:10479000200008B1B01CC6B21248007C00F0100026
:1047A00008B1B01CC6B20F48007C00F0080008B188
:1047B000B01DC6B20B4A1268917A0A4A5268107844
:1047C0006B460222FDF7F8FB10B14FF0FF30C5E752
:1047D0009DF801009DF8001040EA0129B1450BDA6F
:1047E0000020BBE768010020000003430000834273
:1047F0003333034233338341FC4840684088B9EB8C
:10480000600F17DDF94A1268517CF84A5268107837
:104810006B460122FDF7D0FB10B14FF0FF309DE752
:104820009DF8000000F0100020B1FFF791F96FF043
:10483000010093E75046FFF7EAFCEC4A1268D17A90
:10484000EA4A526810786B463246FDF7B5FB10B164
:104850004FF0FF3082E799FBF6F0401E8BF8000026
:1048600000202870B4422AD0E048007C00F0080004
:1048700028B3601C1DF800001DF8041040EA012058
:1048800000B2A8F80000E01C1DF80010A01C1DF8E4
:10489000000041EA002000B2A8F80200601D1DF8E7
:1048A0000010201D1DF8000041EA002000B2A8F809
:1048B0000400287840F008002870A01D84B2B4429B
:1048C00013D0CA48007C00F0400070B1601C1DF895
:1048D00000001DF8041040EA012000B2388028785A
:1048E00040F040002870A01C84B2B44213D0BF48EE
:1048F000007C00F0200070B1601C1DF800001DF865
:10490000041040EA012000B27880287840F02000AE
:104910002870A01C84B2B44213D0B448007C00F0CC
:10492000100070B1601C1DF800001DF8041040EA72
:10493000012000B2B880287840F010002870A01C38
:1049400084B200200AE7F8B504460F461646A74889
:1049500090F8240010B94FF0FF30F8BDA348807ADA
:1049600010B94FF0FF30F8E7A04A1268917A9F4AD9
:10497000526810786B460222FDF71EFB10B14FF013
:10498000FF30EAE79DF801009DF8001040EA01259C
:10499000A54203DA00203070401EDEE793484068ED
:1049A0004088B5EB600F17DD904A1268517C8F4A42
:1049B000526810786B460122FDF7FEFA10B14FF0F5
:1049C000FF30CAE79DF8000000F0100020B1FFF7AB
:1049D000BFF86FF00100C0E7E2B2844B1B68D97AE0
:1049E000824B5B6818783B46FDF7E6FA10B14FF052
:1049F000FF30B2E795FBF4F0401E30700020ACE7CA
:104A000001467A4880F82210002070477CB50546A0
:104A100076494968087801AB04220D21FDF7CCFAEC
:104A200008B107207CBD9DF80700C0F301109DF878
:104A3000041001F0E00140EAE1008DF800009DF86B
:104A40000700C0F381009DF8051001F0E00140EA85
:104A5000E1008DF801009DF8070000F003009DF8CB
:104A6000061001F0E00140EAE1008DF802000024A8
:104A70001CE01DF8040018B9002045F8240013E0DC
:104A80005B4845F8240006E055F82400594904F035
:104A90004DFE45F824001DF80400401EC0B20DF87C
:104AA00004000028F0D100BF601CC4B2032CE0DB7E
:104AB0000020B7E72DE9FE4F06460F460025684661
:104AC000FFF7A4FF002442E056F8240057F8241012
:104AD000A0EB010ABAF1000F01DB514601E0CAF177
:104AE0000001084604F0C2FD83464FF08F4104F0F8
:104AF0008BFC80465DF82400002104F047FD16D0B1
:104B00005DF82410404604F07FFC82464FF07E5151
:104B100004F014FF814629F0004A3748416A5046A4
:104B200004F0D0FE12D20120A04005430EE032482E
:104B3000C169404604F0C6FD05D32F48016A4046CE
:104B400004F0C0FE02D20120A0400543641C032CE7
:104B5000BADB2846BDE8FE8F2DE9FC5F06460F460E
:104B6000002522494968087801AB03220D21FDF791
:104B700023FA10B10720BDE8FC9F9DF8040000F067
:104B80001F008DF804009DF8050000F01F008DF84F
:104B900005009DF8060000F01F008DF806000024B7
:104BA00062E056F8240057F82410A0EB010BBBF18B
:104BB000000F01DB594601E0CBF10001084604F08B
:104BC00055FD4FF08F41009004F01EFC814601A876
:104BD000005DC0B30849086804F060FD834659468B
:104BE000064804F011FC80460FE000006801002038
:104BF0007B14AE3E1D5A843FA4A5000800B04C456E
:104C0000FE49404604F092FD804601A8005D401E2A
:104C1000C0B201A908550028F2D14146484604F027
:104C2000F3FB83464FF07E5104F088FE82462AF063
:104C3000004BF3488169584604F044FE13D201202A
:104C4000A04005430FE0FFE7ED480169484604F046
:104C500039FD05D3EA484169484604F033FE02D2E3
:104C60000120A0400543641C032C9ADB284682E700
:104C70002DE9F04F87B005460C46914601208DF88E
:104C8000100000208DF81100DE4A1268917CDD4A88
:104C90005268107804AB0222FDF72CF920B14FF0D6
:104CA000FF3007B0BDE8F08FC820FBF781FB002084
:104CB0008DF81000D34A1268D17BD24A526810781E
:104CC00004AB0122FDF716F910B14FF0FF30E8E711
:104CD000CC4A12685179CB4A5268107804AB012251
:104CE000FDF708F910B14FF0FF30DAE7C54A126856
:104CF000917CC44A5268107804AB0122FDF7FAF89F
:104D000010B14FF0FF30CCE7BE4A1268D17DBD4AEA
:104D10005268107804AB0122FDF7ECF810B14FF0A7
:104D2000FF30BEE7B74A12681179B64A5268107868
:104D300004AB0122FDF7DEF810B14FF0FF30B0E711
:104D40000C208DF81000AF4A12681179AD4A5268F4
:104D5000107804AB0122FDF7CDF810B14FF0FF3011
:104D60009FE70F20FBF724FBA648806A407A8DF866
:104D70001000A44A12689178A24A5268107804ABD5
:104D80000122FDF7B7F810B14FF0FF3089E79D48D9
:104D9000806A007A8DF810009A4A12685178994A10
:104DA0005268107804AB0122FDF7A4F810B14FF05F
:104DB000FF3076E7B9F1000F07D09248806A807A19
:104DC00040F0E0008DF8100004E08E48806A807AA0
:104DD0008DF810008B4A126891798A4A52681078CF
:104DE00004AB0122FDF786F810B14FF0FF3058E711
:104DF000B9F1000F07D08348806AC07A40F0E00024
:104E00008DF8100003E07E48C07A8DF810007D4ACE
:104E10001268D1797B4A5268107804AB0122FDF701
:104E200069F810B14FF0FF303BE7B9F1000F02D045
:104E3000C820FBF7BDFA40208DF81000714A1268B7
:104E40001179704A5268107804AB0122FDF752F8CC
:104E500010B14FF0FF3024E778208DF81000694A38
:104E600012685179674A5268107804AB0122FDF745
:104E700041F810B14FF0FF3013E761498889FBF723
:104E800097FA00208DF810005E4A126851795D4A49
:104E90005268107804AB0122FDF72CF810B14FF0E6
:104EA000FF30FEE6574A1268917A564A52681078E7
:104EB00004AB0222FDF780F810B14FF0FF30F0E6AE
:104EC0009DF811009DF8101040EA012B0C209BFB6F
:104ED000F0F0C6B20020A86068602860A060606042
:104EE0002060824665E0474A1268D17A454A526896
:104EF000107804AB0C22FDF75FF810B14FF0FF30D3
:104F0000CFE69DF811009DF8101040EA012000B294
:104F1000ADF808009DF813009DF8121040EA01203A
:104F200000B2ADF80A009DF815009DF8141040EA93
:104F3000012000B2ADF80C00BDF90810206808444B
:104F40002060BDF90A10606808446060BDF90C106B
:104F5000A0680844A0609DF817009DF8161040EA6C
:104F6000012000B2ADF800009DF819009DF818105E
:104F700040EA012000B2ADF802009DF81B009DF848
:104F80001A1040EA012000B2ADF80400BDF900108B
:104F9000286808442860BDF9021068680844686001
:104FA000BDF90410A8680844A8600AF1010000F0E7
:104FB000FF0AB24597DB1248D0F800C02868C11735
:104FC000090441EA1041070462460023384602F012
:104FD000A0F832460023CDE9020102F09AF82860D9
:104FE0000748D0F800C06868C117090441EA1041B9
:104FF000070462460023384606E0000054E3853F7C
:10500000A4A500086801002002F083F832460023BE
:10501000CDE9020102F07DF86860FE48D0F800C0DA
:10502000A868C117090441EA104107046246002339
:10503000384602F06EF832460023CDE9020102F054
:1050400068F8A860F348D0F804C02168C8170004C5
:1050500040EA11480F04624600233846414602F0F8
:1050600058F832460023CDE9020102F052F82060E0
:10507000E848D0F804C06068C117090441EA10414B
:10508000070462460023384602F043F83246002304
:10509000CDE9020102F03DF86060DE48D0F804C0BE
:1050A000A068C117090441EA1041070462460023C1
:1050B000384602F02EF832460023CDE9020102F014
:1050C00028F8A060A068002804DDA068A0F5803062
:1050D000A06003E0A06800F58030A0600020E0E55B
:1050E00038B50446CC4890F82400A04201D10020F5
:1050F00038BD24B3C84890F8250010B94FF0FF30F0
:10510000F6E70020FEF75EFB0020FEF77DFCC249BB
:10511000C88CFEF7DCFE00200090BF494968087883
:105120006B4601222321FCF7E5FE0121BA4880F8F5
:1051300024100120FEF746FBFEF70AFD13E00020D5
:10514000FEF740FBB448007C0090B34949680878FA
:105150006B4601222321FCF7CDFE0021AE4880F8EA
:105160002410FEF7F5FC0020C2E72DE9F04F8DB0CA
:1051700083460F4602200C90A74890F8240020B1E7
:105180000020FFF7ADFF012600E0002603A8FFF78F
:10519000E2F905A8FFF7FFF901A8FFF720FA02A836
:1051A000FFF742FA9C4890F80AA004A8FFF796FA85
:1051B000002407E0002239465846FFF759FD00B9A0
:1051C00002E0641C022CF5DB00BF022C01D100259B
:1051D00028E0002407E0012206A909A8FFF748FDFE
:1051E00000B902E0641C022CF5DB00BF022C01D1E7
:1051F000002517E006A93846FFF75CFC00F0FF0821
:1052000009A95846FFF7A8FC00F0FF090025B9F1ED
:10521000000F01D145F00105B8F1000F01D145F0B3
:10522000020500BFFF207C490872FF217A484172C5
:10523000C1724FF6FF71C181FF218172017401219A
:105240000173BDF80C00FEF7D0FE9DF81400FEF7C8
:105250008AFEBDF80400FEF78EFDBDF80800FEF7DB
:1052600036FE5046FEF76BFB9DF81000FEF74EFD34
:1052700016B10120FFF734FF28460DB0BDE8F08FCE
:10528000F8B504460D46164616B94FF0FF30F8BD86
:105290006148807A10B94FF0FF30F8E720128DF89E
:1052A0000000E0B28DF801009DF8010028445A4941
:1052B00049684989884202DD4FF0FF30E7E7564AE6
:1052C0001268117E544A526810786B460222FCF72D
:1052D00011FE10B14FF0FF30D9E7EAB24E4B1B6818
:1052E000597D4D4B5B6818783346FCF703FE10B1CF
:1052F0004FF0FF30CBE70020C9E7F8B504460D4674
:10530000164616B94FF0FF30F8BD4348807A10B901
:105310004FF0FF30F8E720128DF80000E0B28DF872
:1053200001009DF8010028443B49496849898842A9
:1053300002DD4FF0FF30E7E7374A1268117E364A48
:10534000526810786B460222FCF7D4FD10B14FF082
:10535000FF30D9E7EAB2304B1B68597D2E4B5B68B2
:1053600018783346FCF728FE10B14FF0FF30CBE73A
:105370000020C9E72DE9F04385B005460E4690466A
:105380009946254890F8250020B14FF0FF3005B030
:10539000BDE8F08316B94FF0FF30F8E7002423E0B2
:1053A000281B102801DD102000E0281B87B23219CD
:1053B00039462046FFF764FF10B14FF0FF30E6E7B3
:1053C00001AA39462046FFF798FF10B14FF0FF3091
:1053D000DDE730193A4601A901F03AFF10B16FF04C
:1053E0000100D4E7E01984B2AC42D9DB4FEA2820AF
:1053F0008DF8000008F0FF008DF80100064A1268E1
:10540000917E054A526810786B460222FCF772FDC5
:1054100038B103E0A4A50008680100204FF0FF3078
:10542000B5E701218A4880F82510A0F826900020D1
:10543000ADE70146864890F82400087000207047C8
:1054400002464FF0FF30704701464FF0FF30704783
:10545000F8B505460F461446002C70D0B5F5FF5F31
:1054600001DDFF2605E0202D01DA012601E0C5F36C
:10547000471607B90127282C02DD4FF0FF30F8BD91
:105480007348407D28BB724890F8240038B1002052
:10549000FFF726FE01216E4880F8201003E000216E
:1054A0006B4880F820106A481630FFF754F86848B7
:1054B0001830FFF770F866481A30FFF790F8644824
:1054C0001C30FFF7B1F86248817A81771F30FFF70F
:1054D00005F90020FEF776F90020FEF78BFC00208E
:1054E0008DF800005A4A12689178594A526810782B
:1054F0006B460122FCF7FEFC10B14FF0FF30BEE717
:1055000040208DF80000524A1268D17B504A526800
:1055100010786B460122FCF7EDFC00B165E08DF8D8
:1055200000608DF801704A4A1268117A484A526840
:1055300010786B460222FCF7DDFC08B155E047E02D
:105540000520FAF735FF4248407A072101EBC000F9
:10555000C0B28DF800003E4A1268D1793C4A5268C8
:1055600010786B460122FCF7C5FC00B13DE020201D
:105570008DF80000012C03D100208DF801000EE011
:10558000052C03DC01208DF8010008E0142C03DC5D
:1055900002208DF8010002E003208DF801009DF843
:1055A0000100072101EB8010C0B28DF80100284AEC
:1055B0001268917C264A526810786B460222FCF7EA
:1055C00099FC00B111E0012121484175002056E706
:1055D0001F4A1632002103E0505C00B105E0491C6F
:1055E0000C29F9D34FF0FF3049E7FF201849087222
:1055F000FF2117484172C1724FF6FF71C181FF212F
:1056000081720174012101730146887FFEF797F9C9
:105610000F49C88AFEF7E9FC0D49087EFEF7A3FC96
:105620000B49488BFEF7A7FB0949888BFEF74FFC17
:105630000749C87FFEF76AFB054890F8200010B1C3
:105640000120FFF74DFD002101484175002016E7BC
:105650006801002010B5C8234FF48062F74940F676
:10566000F630FFF787FE10BD10B586B00446F4A0F3
:1056700000680390F3A000680290F3A00068019016
:10568000F2A00068009004F0030003A9085C8DF804
:10569000140003A8C4F3C101405C8DF8150003A8F1
:1056A000C4F38111405C8DF8160004F0030002A9D8
:1056B000085C8DF8100002A8C4F3C101405C8DF8AD
:1056C000110002A8C4F38111405C8DF8120005AAF4
:1056D000032140F22640FFF7D3FD18B14FF0FF3011
:1056E00006B010BD04AA032140F22A40FFF7C8FD0E
:1056F00010B14FF0FF30F3E7019805900098049047
:1057000004F0040058B19DF8140040F001008DF839
:1057100014009DF8100040F001008DF8100004F016
:10572000200058B19DF8150040F001008DF81500DB
:105730009DF8110040F001008DF8110004F4807014
:1057400058B19DF8160040F001008DF816009DF844
:10575000120040F001008DF8120005AA03214FF459
:105760008860FFF78DFD10B14FF0FF30B8E704AA55
:10577000032140F23140FFF783FD10B14FF0FF30BD
:10578000AEE7B34804810020AAE71FB50446B0483D
:10579000007A00F0030054F820000190AC48007A31
:1057A00000F0040010B1019840420190A848007A2E
:1057B000C0F3C10054F820000290A548007A00F020
:1057C000200010B1029840420290A148007AC0F334
:1057D000811054F8200003909D48008900F48070E7
:1057E00010B10398404203909A49019880FB01014F
:1057F000800F40EA810001909649029880FB0110D9
:10580000820042EA917002909249039880FB011055
:10581000820042EA917003900198000E8DF800001A
:105820000198000C8DF801000198000A8DF8020023
:105830000198C0B28DF803006A4604214FF47470D9
:10584000FFF71EFD18B14FF0FF3004B010BD0298F5
:10585000000E8DF800000298000C8DF801000298EF
:10586000000A8DF802000298C0B28DF803006A4663
:1058700004214FF47570FFF703FD10B14FF0FF30B6
:10588000E3E70398000E8DF800000398000C8DF8F4
:1058900001000398000A8DF802000398C0B28DF849
:1058A00003006A4604214FF47670FFF7E9FCCCE769
:1058B00070B588B0064601A8FEF7E9FEBDF8040001
:1058C0000021C90341EA5045C4036148007A00F051
:1058D000030056F8200005905D48007A00F00400AF
:1058E00010B10598404205905948007AC0F3C100B4
:1058F00056F8200006905648007A00F0200010B1BB
:105900000698404206905248007AC0F3811056F83B
:10591000200007904E48008900F4807010B107986D
:10592000404207900598C117A0FB042301FB0431F6
:1059300000FB0510810041EA927005900698C1179E
:10594000A0FB042301FB043100FB0510810041EAA8
:10595000927006900798C117A0FB042301FB043145
:1059600000FB0510810041EA927007900598000E37
:105970008DF808000598000C8DF809000598000ABC
:105980008DF80A000598C0B28DF80B000698000E3D
:105990008DF80C000698000C8DF80D000698000A92
:1059A0008DF80E000698C0B28DF80F000798000E13
:1059B0008DF810000798000C8DF811000798000A68
:1059C0008DF812000798C0B28DF8130002AA0C21BE
:1059D0004FF42570FFF754FC08B070BD30B585B0AA
:1059E00004461DA207CA02AB07C3C82C03DD4FF053
:1059F000FF3005B030BDC82090FBF4F0401E85B2EA
:105A0000280A8DF80000E8B28DF801006A460221EC
:105A100040F21620FFF734FC10B14FF0FF30E8E7FA
:105A200002AA0C2140F6C120FFF72AFC10B14FF06A
:105A3000FF30DEE7064884810020DAE7CCA50008C5
:105A40004CCD6C000CC92C003656760026466600FC
:105A50000806002009E3CA02FEF2ABC4AAF1DFDFA8
:105A6000BBAFDFDF0146FC4880890880002070471B
:105A70002DE9FC4706460F4606F0070010B1B7F5C2
:105A8000C86F03DD4FF0FF30BDE8FC87384603F0F8
:105A900005FE8146F14903F0B7FC80466846FEF7F3
:105AA0007AFD9DF80000022806D0042816D00828A8
:105AB00026D0102848D135E04FF08D41404603F004
:105AC00035FE814603F0B2FD84B2E549404603F05D
:105AD0002DFE814603F0AAFD85B238E04FF08C41DF
